:020000040800F2
:10000000005000203D030008290300082B030008CE
:100010002D0300082F030008310300080000000032
:100020000000000000000000000000003303000892
:1000300035030008000000003703000839030008FA
:100040008103000881030008810300088103000880
:100050008103000881030008810300088103000870
:100060008103000881030008810300088103000860
:100070008103000881030008810300088103000850
:100080008103000881030008810300088103000840
:100090008103000881030008810300088103000830
:1000A0008103000881030008810300088103000820
:1000B0008103000881030008810300088103000810
:1000C0008103000881030008810300088103000800
:1000D00081030008810300088103000881030008F0
:1000E000810300088103000881030008000000006C
:1000F0000000000000000000000000000000000000
:0C01000000000000000000005FF808F1A3
:10010C0018009FE518309FE5000053E11EFF2F01FA
:10011C0010309FE5000053E31EFF2F0113FF2FE16A
:10012C0004000020040000200000000024009FE5D3
:10013C0024309FE5003043E0A31FA0E1431181E090
:10014C00C110B0E11EFF2F0110309FE5000053E3FA
:10015C001EFF2F0113FF2FE10400002004000020DC
:10016C000000000010402DE92C409FE50030D4E544
:10017C00000053E30600001AE0FFFFEB1C309FE584
:10018C00000053E318009F1500F020130130A0E38A
:10019C000030C4E51040BDE81EFF2FE10400002034
:1001AC00000000001806000820309FE5000053E313
:1001BC000500000A10402DE914109FE514009FE57E
:1001CC0000F020E31040BDE8D7FFFFEAD6FFFFEABE
:1001DC0000000000080000201806000800B583B0DD
:1001EC0000F0CAF800F0E6F800230193019A034BE3
:1001FC009A42F7DC019B01330193F7E71FA107003B
:10020C0082B00023019300932C4A136843F480338B
:10021C0013602A4B1B6803F400330093019B0133DA
:10022C000193009B1BB9019BB3F5A06FF1D1234B3C
:10023C001B6813F4003F06D001230093009B012B95
:10024C0004D002B0704700230093F7E71C4B1A68E8
:10025C0042F010021A601A6822F003021A601A683F
:10026C0042F002021A60A3F580535A685A605A6829
:10027C005A605A6842F480625A605A6822F47C12BE
:10028C005A605A6842F4E8125A601A6842F0807256
:10029C001A600A4B1B6813F0007FFAD0074B5A68A0
:1002AC0022F003025A605A6842F002025A60034B71
:1002BC005B6803F00C03082BF9D1C2E70010024075
:1002CC000020024008B5FFF79BFF08BD08B5104B96
:1002DC001A6842F001021A6059680E4A0A405A60C4
:1002EC001A6822F0847222F480321A601A6822F49E
:1002FC0080221A605A6822F4FE025A604FF41F02E0
:10030C009A60FFF7DFFF044B4FF000629A6008BD64
:10031C00001002400000FFF800ED00E07047FEE71F
:10032C00FEE7FEE7FEE77047704770477047000036
:10033C00002103E00A4B5B584350043109480A4B37
:10034C0042189A42F6D3094A02E0002342F8043BD1
:10035C00074B9A42F9D3FFF7B9FFFFF73FFF7047FE
:10036C0054060008000000200400002004000020B7
:10037C00B8010020FEE7000030B583B00121102049
:10038C0000F090F810238DF807304FF40055ADF8BD
:10039C00045003238DF80630054C01A9204600F0CB
:1003AC001BF82946204600F076F803B030BD00BF9C
:1003BC000010014010B5074C4FF40051204600F0DE
:1003CC0063F8C0F10102D2B24FF40051204600F0A4
:1003DC0064F810BD0010014030B5CB7803F00F026B
:1003EC00964613F0100F03D091F802E04EEA020E7D
:1003FC000B78FBB10568002301E042610133072B48
:10040C0017D801229A40B1F800C032EA0C0CF5D191
:10041C009C004FF00F0C0CFA04FC25EA0C050EFAAC
:10042C0004F42543CC78282CE7D0482CE6D1026183
:10043C00E4E705600B88FF2B25D94568002303E012
:10044C00CC78482C1CD00133072B1BD803F1080C9B
:10045C00012202FA0CF2B1F800C032EA0C0CF2D113
:10046C009C004FF00F0C0CFA04FC25EA0C0C0EFA55
:10047C0004F444EA0C05CC78282CE1D14261DFE786
:10048C000261E0E7456030BDC368194201D001202C
:10049C00704700207047416170470AB10161704795
:1004AC004161704721B1054A9369034393617047D9
:1004BC00024A936923EA00039361704700100240DB
:1004CC001EFF2FE11EFF2FE118309FE5000053E3C4
:1004DC001EFF2F0110402DE90C009FE5030000EBDF
:1004EC001040BDE81EFF2FE1000000001C050008B5
:1004FC000030A0E310402DE90010A0E10320A0E1A2
:10050C000300A0E1120000EB1040BDE81EFF2FE13C
:10051C0070402DE930509FE530409FE5044045E0A8
:10052C004441B0E10500000A043035E5014044E2E5
:10053C000FE0A0E113FF2FE1000054E3F9FFFF1AD5
:10054C00370000EB7040BDE81EFF2FE15406000899
:10055C0050060008F0412DE9A0809FE50040A0E185
:10056C00000098E50360A0E10150A0E10270A0E159
:10057C00D2FFFFEB88309FE500C093E500005CE301
:10058C0080C09F0504E09CE500C083051F005EE36E
:10059C00000098E5160000CA000054E30700001A9A
:1005AC0001308EE202E08EE204308CE50E518CE7D5
:1005BC00C3FFFFEB0000A0E3F041BDE81EFF2FE1FD
:1005CC000130A0E30E118CE0887081E588219CE558
:1005DC00133EA0E1032082E188218CE5086181E5CE
:1005EC00020054E38C219C05033082018C318C0574
:1005FC00EAFFFFEAB2FFFFEB0000E0E3EDFFFFEAEA
:10060C000000002024000020280000200DC0A0E1E4
:10061C00F8DF2DE904B04CE228D04BE2F06F9DE8F6
:10062C001EFF2FE10DC0A0E1F8DF2DE904B04CE274
:0C063C0028D04BE2F06F9DE81EFF2FE17C
:08064800D4040008B40100080D
:04065000700100082D
:040654002000002062
:040000050800010CE2
:00000001FF
