:020000040800F2
:1000000000500020810300086D0300086F03000802
:100010007103000873030008750300080000000066
:10002000000000000000000000000000770300084E
:1000300079030008000000007B0300087D0300082E
:10004000C5030008C5030008C5030008C503000870
:10005000C5030008C5030008C5030008C503000860
:10006000C5030008C5030008C5030008C503000850
:10007000C5030008C5030008C5030008C503000840
:10008000C5030008C5030008C5030008C503000830
:10009000C5030008C5030008C5030008C503000820
:1000A000C5030008C5030008C5030008C503000810
:1000B000C5030008C5030008C5030008C503000800
:1000C000C5030008C5030008C5030008C5030008F0
:1000D000C5030008C5030008C5030008C5030008E0
:1000E000C5030008C5030008C503000800000000A0
:1000F0000000000000000000000000000000000000
:0C01000000000000000000005FF808F1A3
:10010C0018009FE518309FE5000053E11EFF2F01FA
:10011C0010309FE5000053E31EFF2F0113FF2FE16A
:10012C0004000020040000200000000024009FE5D3
:10013C0024309FE5003043E0A31FA0E1431181E090
:10014C00C110B0E11EFF2F0110309FE5000053E3FA
:10015C001EFF2F0113FF2FE10400002004000020DC
:10016C000000000010402DE92C409FE50030D4E544
:10017C00000053E30600001AE0FFFFEB1C309FE584
:10018C00000053E318009F1500F020130130A0E38A
:10019C000030C4E51040BDE81EFF2FE10400002034
:1001AC00000000002C10000820309FE5000053E3F5
:1001BC000500000A10402DE914109FE514009FE57E
:1001CC0000F020E31040BDE8D7FFFFEAD6FFFFEABE
:1001DC0000000000080000202C10000800B585B0BD
:1001EC0000F096F8482000F029F900F0F7F900F03B
:1001FC00EDFB00F0E3F800F03FFC642000F034F974
:10020C000021642000F058FC4FF4FC630093802321
:10021C00A0220021084600F0DFFA002002901023F3
:10022C0001931F2300934FF6FF73054A014600F01C
:10023C00ABFB00F0E9FB4FF4FA7000F015F9F8E7AE
:10024C005C10000882B00023019300932C4A1368C1
:10025C0043F4803313602A4B1B6803F40033009380
:10026C00019B01330193009B1BB9019BB3F5A06F5C
:10027C00F1D1234B1B6813F4003F06D001230093EC
:10028C00009B012B04D002B0704700230093F7E7CA
:10029C001C4B1A6842F010021A601A6822F0030212
:1002AC001A601A6842F002021A60A3F580535A6869
:1002BC005A605A685A605A6842F480625A605A68A6
:1002CC0022F47C125A605A6842F4E8125A601A6896
:1002DC0042F080721A600A4B1B6813F0007FFAD050
:1002EC00074B5A6822F003025A605A6842F0020225
:1002FC005A60034B5B6803F00C03082BF9D1C2E77F
:10030C00001002400020024008B5FFF79BFF08BD1B
:10031C0008B5104B1A6842F001021A6059680E4A6F
:10032C000A405A601A6822F0847222F480321A60F1
:10033C001A6822F480221A605A6822F4FE025A606B
:10034C004FF41F029A60FFF7DFFF044B4FF000627F
:10035C009A6008BD001002400000FFF800ED00E0BC
:10036C007047FEE7FEE7FEE7FEE770477047704711
:10037C0070470000002103E00A4B5B5843500431E6
:10038C0009480A4B42189A42F6D3094A02E0002364
:10039C0042F8043B074B9A42F9D3FFF7B9FFFFF73A
:1003AC001DFF70477C440008000000200400002062
:1003BC0004000020BC010020FEE7000030B587B02F
:1003CC00012144F2040000F0C9FC4FF40073ADF8B5
:1003DC00143018238DF8173003238DF8163005AD23
:1003EC00154C2946204600F0F7FB4FF48063ADF81E
:1003FC00143004238DF817302946204600F0ECFB0E
:10040C004FF4E13301930023ADF80830ADF80A3016
:10041C00ADF80C30ADF810300C23ADF80E3004F5FF
:10042C00405401A9204600F0E5FC0121204600F0D3
:10043C0043FD07B030BD00BF0008014010B50446B5
:10044C006FF0040000F0B8FBE008054B1870C0EB2F
:10045C00401300EB8300C000024B188010BD00BF9E
:10046C0022000020200000200B4B1B8803FB00F017
:10047C004FF0E023586100229A6101221A614FF07B
:10048C00E0231B6903F00113012BF8D04FF0E0239C
:10049C0000221A619A617047200000200B4B1B78D8
:1004AC0003FB00F04FF0E023586100229A61012217
:1004BC001A614FF0E0231B6903F00113012BF8D0F4
:1004CC004FF0E02300221A619A617047220000204D
:1004DC0030B583B00121042000F040FC3F25ADF87D
:1004EC00045010238DF8073003238DF80630054C8B
:1004FC0001A9204600F070FB2946204600F0CBFBFA
:10050C0003B030BD0008014038B504461021124834
:10051C0000F0C3FB00250BE002210F4800F0BBFBF1
:10052C0001210D4800F0B7FB6400E4B20135EDB2D7
:10053C00072D0BD80121084800F0AFFB14F0800FF9
:10054C00EAD10221044800F0A8FBE9E71021024897
:10055C0000F0A1FB38BD00BF0008014008B5FFF753
:10056C00D3FF08BD10B50446000AFFF7CDFFE0B27B
:10057C00FFF7CAFF10BD000038B50446064D082130
:10058C00284600F08AFB2046FFF7BEFF08212846CC
:10059C0000F081FB38BD00BF00080140F8B50746EC
:1005AC000D4616461C462A20FFF7E6FF781C80B243
:1005BC00FFF7D8FF701C80B2FFF7D4FF2B20FFF79A
:1005CC00DBFFA81C80B2FFF7CDFFA01C80B2FFF7A9
:1005DC00C9FF2C20FFF7D0FFF8BD000010B5FFF7C6
:1005EC0077FF7C4C0421204600F057FB6420FFF77A
:1005FC003BFF0421204600F04EFB6420FFF734FF44
:10060C002021204600F047FB6420FFF72DFF11202E
:10061C00FFF7B2FF7820FFF727FFB120FFF7ACFF01
:10062C000520FFF79BFF3C20FFF798FF3C20FFF7CE
:10063C0095FFB220FFF7A0FF0520FFF78FFF3C20AE
:10064C00FFF78CFF3C20FFF789FFB320FFF794FFE7
:10065C000520FFF783FF3C20FFF780FF3C20FFF7CE
:10066C007DFF0520FFF77AFF3C20FFF777FF3C204A
:10067C00FFF774FFB420FFF77FFF0320FFF76EFF37
:10068C00C020FFF779FF2820FFF768FF0820FFF74D
:10069C0065FF0420FFF762FFC120FFF76DFFC0204C
:1006AC00FFF75CFFC220FFF767FF0D20FFF756FF37
:1006BC000020FFF753FFC320FFF75EFF8D20FFF7ED
:1006CC004DFF2A20FFF74AFFC420FFF755FF8D206E
:1006DC00FFF744FFEE20FFF741FFC520FFF74CFF6B
:1006EC001A20FFF73BFF3620FFF746FF7020FFF77D
:1006FC0035FFE020FFF740FF0420FFF72FFF2220FB
:10070C00FFF72CFF0720FFF729FF0A20FFF726FF32
:10071C002E20FFF723FF3020FFF720FF2520FFF7C7
:10072C001DFF2A20FFF71AFF2820FFF717FF2620AE
:10073C00FFF714FF2E20FFF711FF3A20FFF70EFFF3
:10074C000020FFF70BFF0120FFF708FF0320FFF746
:10075C0005FF1320FFF702FFE120FFF70DFF042038
:10076C00FFF7FCFE1620FFF7F9FE0620FFF7F6FE5A
:10077C000D20FFF7F3FE2D20FFF7F0FE2620FFF7EC
:10078C00EDFE2320FFF7EAFE2720FFF7E7FE2720E8
:10079C00FFF7E4FE2520FFF7E1FE2D20FFF7DEFE3C
:1007AC003B20FFF7DBFE0020FFF7D8FE0120FFF710
:1007BC00D5FE0420FFF7D2FE1320FFF7CFFE3A2020
:1007CC00FFF7DAFE0520FFF7C9FE2920FFF7D4FE5C
:1007DC0010BD00BF000801402DE9F84381460F46CB
:1007EC0015469846BDF82060013B013A9BB292B287
:1007FC00FFF7D4FE08E03046FFF7B4FE0134A4B294
:10080C00AC42F8D30137BFB2474501D24C46F7E7AB
:10081C00BDE8F88310B50B4614460246FFF7BEFE42
:10082C002046FFF79FFE10BD2DE9F04F87B08346A1
:10083C0002910093BDF8403001939DF844409DF81F
:10084C0048A04FEA540914F00E0618BF012606EB17
:10085C00141604FB06F6203AD3B2039300EB5402B1
:10086C0092B263189BB2013B013A9BB292B2FFF772
:10087C0095FED84600231F465946B3461E462346CE
:10088C005E4575D2A3F10C02142A71D8DFE802F090
:10089C000B70707018707070707070701E7070705B
:1008AC00707070702600039A02EB4200324A02EB21
:1008BC008002945D00250496059356468A4621E0F5
:1008CC002E4A039802EB0012945DF3E7039A02EBB5
:1008DC0042002B4A02EB0012945DEBE7294A039885
:1008EC0002EB8012945DE5E70198FFF73BFE0137C0
:1008FC00FFB2B7FBF9F209FB127212F0FF0231D012
:10090C000135EDB2072D26D846B944FA05F313F09C
:10091C00010FE9D00098FFF725FEE8E744FA05F34C
:10092C0013F0010F11D108F101081FFA88F8A8EB98
:10093C000A034B45E4D15146059BB246049E029AEC
:10094C00013292B20292884609E0009A029940461E
:10095C00FFF760FFE7E75146059BB246049E013660
:10096C00B6B28DE75146059BB246049E1746F6E794
:10097C0007B0BDE8F08F00BFE83F0008F839000869
:10098C0028280008681000082DE9F04784B00446B8
:10099C00884615461F46BDF830A09DF834609DF87A
:1009AC0038900DE0CDF808900196CDF800A03B46AC
:1009BC0041462046FFF738FF04EB5604A4B201353C
:1009CC002A78002AEED104B0BDE8F08730B583B0A8
:1009DC000121102000F0C2F910238DF807304FF4DC
:1009EC000055ADF8045003238DF80630054C01A9D1
:1009FC00204600F0F1F82946204600F04EF903B0ED
:100A0C0030BD00BF0010014010B5074C4FF4005131
:100A1C00204600F039F9C0F10102D2B24FF4005176
:100A2C00204600F03CF910BD0010014008B500F064
:100A3C00ADF808BD10B5064C0121204600F02BF98D
:100A4C000120FFF72BFD0121204600F026F910BDF7
:100A5C00000C014008B5C043C0B2034B1870FFF73F
:100A6C00E5FFFFF7E7FF08BD2300002008B50020D5
:100A7C00FFF7F0FF08BD000030B583B000F03EF882
:100A8C000121082000F06AF910238DF807300125A8
:100A9C00ADF8045003238DF80630064C01A920460E
:100AAC0000F09AF82946204600F0F7F8FFF7DEFF31
:100ABC0003B030BD000C014038B505460C4669B199
:100ACC00002418E0C4F1070301209840C0B2FFF7DE
:100ADC00C1FF2846FFF7C8FC0134E4B2072CF1D95A
:100AEC0038BD0120A040C0B2FFF7B4FF2846FFF785
:100AFC00BBFC0134E4B2072CF3D9F1E730B587B075
:100B0C00012141F2040000F029F9A023ADF81430C2
:100B1C0003238DF8163018238DF8173005AD1A4CB9
:100B2C002946204600F058F84023ADF81430042331
:100B3C008DF817302946204600F04EF80023ADF80A
:100B4C0000304FF48272ADF80220ADF80430ADF8ED
:100B5C000630ADF808304FF40072ADF80A201022C0
:100B6C00ADF80C20ADF80E300723ADF8103004F5BD
:100B7C0020546946204600F0FFF80121204600F081
:100B8C0022F907B030BD00BF0008014010B5044683
:100B9C000221084800F027F90028F9D02146054821
:100BAC0000F01FF98021034800F01DF90128F9D04D
:100BBC0010BD00BF00300140042806D04FF0E022E9
:100BCC00136923F00403136170474FF0E02213699B
:100BDC0043F004031361704730B5CB7803F00F0278
:100BEC00964613F0100F03D091F802E04EEA020E75
:100BFC000B78FBB10568002301E042610133072B40
:100C0C0017D801229A40B1F800C032EA0C0CF5D189
:100C1C009C004FF00F0C0CFA04FC25EA0C050EFAA4
:100C2C0004F42543CC78282CE7D0482CE6D102617B
:100C3C00E4E705600B88FF2B25D94568002303E00A
:100C4C00CC78482C1CD00133072B1BD803F1080C93
:100C5C00012202FA0CF2B1F800C032EA0C0CF2D10B
:100C6C009C004FF00F0C0CFA04FC25EA0C0C0EFA4D
:100C7C0004F444EA0C05CC78282CE1D14261DFE77E
:100C8C000261E0E7456030BDC368194201D0012024
:100C9C0070470020704701617047416170470AB18D
:100CAC00016170474161704710B4274B5B6803F0DA
:100CBC000C03042B25D0082B26D0002B41D1234B21
:100CCC000360214A5368C3F30313214CE15C0368AE
:100CDC00CB4043605168C1F30221615C23FA01F1FE
:100CEC0081605168C1F3C221615CCB40C360526822
:100CFC00C2F3813217498A5CB3FBF2F3036110BC77
:100D0C007047124B0360DCE70F4A53685268C3F319
:100D1C008343023312F4803F04D10F4A02FB03F3E6
:100D2C000360CEE7084A526812F4003F04D00A4A26
:100D3C0002FB03F30360C4E7044A02FB03F3036002
:100D4C00BFE7024B0360BCE70010024000127A00C0
:100D5C00604400085C44000800093D0021B1054ACC
:100D6C009369034393617047024A936923EA000332
:100D7C0093617047001002402DE9F041028802F4A3
:100D8C0041520F88B1F802808E88CD880C89B1F859
:100D9C000AE0B1F80CC0CB8947EA08073E4335435B
:100DAC002C434EEA040E4CEA0E0C43EA0C0313439C
:100DBC000380838B9BB223F400639BB283830B8AE7
:100DCC000382BDE8F08129B103889BB243F0400354
:100DDC000380704703889BB223F040039BB20380CF
:100DEC007047818170470389194201D001207047F7
:100DFC000020704730B587B004460D46038A9BB27D
:100E0C00CA8823F440531343038283899BB2898895
:100E1C0028896A8901430A4323F4B05323F00C0355
:100E2C001343A381A38A9BB2AA8923F4407313436F
:100E3C00A38201A8FFF738FF1D4B9C4224D0039BD3
:100E4C00A28912F4004F21D103EB830303EB83033C
:100E5C002A689200B3FBF2F3164AA2FB0312520962
:100E6C001101642002FB1033A28912F4004F16D139
:100E7C001B0132330F4AA2FB0323C3F343130B436F
:100E8C009BB2238107B030BD049BD9E703EB8303EE
:100E9C0003EB83032A685200B3FBF2F3DCE7DB00BD
:100EAC003233044AA2FB0323C3F342130B43E7E799
:100EBC00003801401F85EB5129B183899BB243F463
:100ECC0000538381704783899BB223F400539BB2F8
:100EDC00838170471EFF2FE11EFF2FE118309FE525
:100EEC00000053E31EFF2F0110402DE90C009FE57D
:100EFC00030000EB1040BDE81EFF2FE100000000D6
:100F0C00300F00080030A0E310402DE90010A0E1E4
:100F1C000320A0E10300A0E1120000EB1040BDE8AB
:100F2C001EFF2FE170402DE930509FE530409FE5CA
:100F3C00044045E04441B0E10500000A043035E5C9
:100F4C00014044E20FE0A0E113FF2FE1000054E365
:100F5C00F9FFFF1A370000EB7040BDE81EFF2FE1D0
:100F6C007C44000878440008F0412DE9A0809FE5FE
:100F7C000040A0E1000098E50360A0E10150A0E171
:100F8C000270A0E1D2FFFFEB88309FE500C093E533
:100F9C0000005CE380C09F0504E09CE500C0830575
:100FAC001F005EE3000098E5160000CA000054E341
:100FBC000700001A01308EE202E08EE204308CE56C
:100FCC000E518CE7C3FFFFEB0000A0E3F041BDE83E
:100FDC001EFF2FE10130A0E30E118CE0887081E53B
:100FEC0088219CE5133EA0E1032082E188218CE559
:100FFC00086181E5020054E38C219C0503308201D9
:10100C008C318C05EAFFFFEAB2FFFFEB0000E0E356
:10101C00EDFFFFEA00000020280000202C0000203B
:10102C000DC0A0E1F8DF2DE904B04CE228D04BE272
:10103C00F06F9DE81EFF2FE10DC0A0E1F8DF2DE958
:10104C0004B04CE228D04BE2F06F9DE81EFF2FE17C
:10105C0048656C6C6F20776F726C64000000000048
:10106C000000000000000000000000000000000074
:10107C000000000000000000000000000000000064
:10108C000000000000000000000000000000000054
:10109C000000000000000000000000000000000044
:1010AC00000000000000C001C001C001C001C0016F
:1010BC00C001C001800080008000800080008000A2
:1010CC00800000000000000000008001C003C0038D
:1010DC008001000000000000000000000000000083
:1010EC000000E01CE01CF01E700E3807180308010D
:1010FC008400000000000000000000000000000060
:10110C0000000000000000000000000000000000D3
:10111C0000000000000000000000000000000000C3
:10112C0000000000000000002010201020102010F3
:10113C002010FE7FFE7F1008100810081008100801
:10114C0010081008FE7FFE7F080408040804080439
:10115C000804000000000000000000000000000077
:10116C000000000000010001C007601910311831A7
:10117C001839183938017001E001C0038007000FDD
:10118C00001D003900311C311C310C310C11180DB3
:10119C00E007000100010001000000000000000059
:1011AC0000000000000000001C1036186308630CDF
:1011BC0063046304630263026301361D9C3780225F
:1011CC0080634063406320632063306310221836D1
:1011DC00081C0000000000000000000000000000DF
:1011EC000000000000000000F00098018C018C0150
:1011FC008C018C018C00CC007800183E1C08360841
:10120C00320863046304C304C303834306438E267A
:10121C00781C00000000000000000000000000002E
:10122C0000001C003C003C003000300010000C00A2
:10123C00060000000000000000000000000000009C
:10124C000000000000000000000000000000000092
:10125C000000000000000000000000000000000082
:10126C0000000040002000100008000C00040006E4
:10127C0000030003000380018001800180018001D4
:10128C0080018001800100030003000300060006BA
:10129C00000C0008001000200040000000000000BE
:1012AC000000020004000800100030002000600064
:1012BC00C000C000C000800180018001800180015D
:1012CC00800180018001C000C000C000600060008F
:1012DC0030001000080004000200000000000000B4
:1012EC00000000000000000000000000000180036E
:1012FC00800300011C713C79783DC0070001C007D8
:10130C00783D3C791C710001800380038001000052
:10131C0000000000000000000000000000000000C1
:10132C0000000000000000000000000000000001B0
:10133C00000100010001000100010001FC7F00011F
:10134C00000100010001000100010001000000008B
:10135C000000000000000000000000000000000081
:10136C000000000000000000000000000000000071
:10137C000000000000000000000000000000000061
:10138C000000000000000000000000001C003C00F9
:10139C003C003000300010000C0006000000000083
:1013AC000000000000000000000000000000000031
:1013BC00000000000000000000000000FE7F0000A4
:1013CC000000000000000000000000000000000011
:1013DC000000000000000000000000000000000001
:1013EC0000000000000000000000000000000000F1
:1013FC0000000000000000000000000000000000E1
:10140C000000000000000000000018003C003C0040
:10141C0018000000000000000000000000000000A8
:10142C000000004000600020003000100018000890
:10143C00000C000400060002000300018001800083
:10144C00C0004000600020003000100018000800B0
:10145C000C00040006000200000000000000000068
:10146C000000000000000000C007600C30181830AD
:10147C00183018200C600C600C600C600C600C6058
:10148C000C600C600C601820183018303018600C90
:10149C00C007000000000000000000000000000079
:1014AC00000000000000000000018001F801800134
:1014BC008001800180018001800180018001800118
:1014CC008001800180018001800180018001C003C6
:1014DC00F81F0000000000000000000000000000E9
:1014EC000000000000000000E007101C0818043089
:1014FC0004300C300C3000300018000800040002DE
:10150C000001800040002020102008200430FC1F27
:10151C00FC1F0000000000000000000000000000A4
:10152C000000000000000000E003180E0C0C0C186A
:10153C000C180C180018000C0006C003000E001844
:10154C000010003000300C300C300C100C18180C43
:10155C00E00300000000000000000000000000009C
:10156C000000000000000000000C000E000E000F38
:10157C00800E800E400E600E200E100E100E080E07
:10158C00040E040EFE7F000E000E000E000E000E68
:10159C00000EC07F000000000000000000000000F2
:1015AC000000000000000000F03FF03F10001000B1
:1015BC00100008000800C807280C18180810003084
:1015CC000030003000300C300C3004180418080CBB
:1015DC00F00300000000000000000000000000000C
:1015EC000000000000000000800FC0102030103000
:1015FC001800180008000C008C0F6C183C301C6094
:10160C000C600C600C600C60186018203030601896
:10161C00C0070000000000000000000000000000F7
:10162C000000000000000000F83FF83F1C100C0800
:10163C00040804040004000200020001000100017F
:10164C00800080008000C000C000C000C000C0004E
:10165C00C0000000000000000000000000000000BE
:10166C000000000000000000E007300C18180C30DF
:10167C000C300C301C3038187008E007B007180E0E
:10168C000C1C063806300630063006300C18180CC8
:10169C00E00300000000000000000000000000005B
:1016AC000000000000000000E00318040C080C18F7
:1016BC000610063006300630063006380C3C18365C
:1016CC00F03100300018001800180C0C0C060C033C
:1016DC00F00100000000000000000000000000000D
:1016EC0000000000000000000000000000000000EE
:1016FC000000000000008001C003C0038001000056
:10170C00000000000000000000008001C003C003C6
:10171C00800100000000000000000000000000003C
:10172C0000000000000000000000000000000000AD
:10173C00000000000000C000C0000000000000001D
:10174C000000000000000000000000000000C000CD
:10175C00C00080008000400040000000000000003D
:10176C00000000000000002000100008000400062B
:10177C0000038001C0006000300018000C0018004D
:10178C0030006000C0008001000300060004000867
:10179C00001000200000000000000000000000000D
:1017AC00000000000000000000000000000000002D
:1017BC00000000000000FE7F0000000000000000A0
:1017CC000000FE7F00000000000000000000000090
:1017DC0000000000000000000000000000000000FD
:1017EC000000000000000400080010002000600051
:1017FC00C000800100030006000C00180030001827
:10180C00000C000600038001C000600020001000E6
:10181C0008000400000000000000000000000000B0
:10182C00000000000000C0073018083008600C6091
:10183C001C601C601C600030001C00060001800055
:10184C00800080008000000000008001C003C00305
:10185C0080010000000000000000000000000000FB
:10186C000000000000000000C007601810301820B5
:10187C000C2F8C4D864CC64CC64C664C664466444C
:10188C00662666266615CC1C0C40082018303018CD
:10189C00C007000000000000000000000000000075
:1018AC000000000000000001C001C001C0014001A7
:1018BC0060032003200320033006100610061006D8
:1018CC00F80F080C080C080C0C0C0418041806185B
:1018DC001F7C000000000000000000000000000061
:1018EC000000000000000000FE07181C183818301B
:1018FC001830183018301818180CF8071818183039
:10190C0018201860186018601860186018301818C3
:10191C00FE0F0000000000000000000000000000AE
:10192C000000000000000000C027603810301820B4
:10193C000C400C40040006000600060006000600E1
:10194C000600060006000C400C400C201830301825
:10195C00C0070000000000000000000000000000B4
:10196C000000000000000000FE03180E18181830CC
:10197C0018301830186018601860186018601860FB
:10198C001860186018601830183018101818180ED5
:10199C00FE0300000000000000000000000000003A
:1019AC000000000000000000FE3F183018201860F6
:1019BC001840180018081808180CF80F180C1808FC
:1019CC001808180018001800184018401820183073
:1019DC00FE3F0000000000000000000000000000BE
:1019EC000000000000000000FE7F1870184018C0B6
:1019FC0018801800181018101818F81F181818103C
:101A0C0018101800180018001800180018001800FA
:101A1C007E0000000000000000000000000000003C
:101A2C000000000000000000C013701C1010181003
:101A3C000C200C2004000600060006000600060020
:101A4C0006FC063006300C300C30183018303008DC
:101A5C00C0070000000000000000000000000000B3
:101A6C0000000000000000003F7E0C180C180C1841
:101A7C000C180C180C180C180C180C18FC1F0C1843
:101A8C000C180C180C180C180C180C180C180C182A
:101A9C003F7E00000000000000000000000000007D
:101AAC000000000000000000F81F80018001800190
:101ABC008001800180018001800180018001800112
:101ACC008001800180018001800180018001800102
:101ADC00F81F0000000000000000000000000000E3
:101AEC000000000000000000E07F00060006000679
:101AFC0000060006000600060006000600060006AA
:101B0C000006000600060006000600060006000699
:101B1C00000600060E060E038E01FC0000000000FD
:101B2C0000000000000000007E7C18181808180443
:101B3C0018061802180198019801D801B803380347
:101B4C0018071806180E180C181C1818183018300E
:101B5C007EFC0000000000000000000000000000FF
:101B6C0000000000000000007E00180018001800A3
:101B7C001800180018001800180018001800180099
:101B8C0018001800180018001840184018201830B9
:101B9C00FE3F0000000000000000000000000000FC
:101BAC0000000000000000001FF81C381C381C3816
:101BBC001C3C34343434343434367432643264324D
:101BCC0064326431C431C431C431C430C430843063
:101BDC009FFC00000000000000000000000000005E
:101BEC0000000000000000001F7C1C103C10341092
:101BFC00341074106410E410C410C41184118413D4
:101C0C00041304170416041E041C041C041C0418DE
:101C1C001F18000000000000000000000000000081
:101C2C000000000000000000C003300C1818081061
:101C3C000C300C30066006600660066006600660BC
:101C4C000660066006600C200C3008101818300C6A
:101C5C00C0030000000000000000000000000000B5
:101C6C000000000000000000FE0F1818183018606B
:101C7C00186018601860186018301818F80F1800E1
:101C8C001800180018001800180018001800180088
:101C9C007E000000000000000000000000000000BA
:101CAC000000000000000000C003300C18180C10DD
:101CBC000C300C200660066006600660066006604C
:101CCC00066006600660E4612C331C321816300E78
:101CDC00C007004C007C0038000000000000000031
:101CEC000000000000000000FE07181C1838183017
:101CFC001830183018301818180CF80798031803F7
:101D0C00180718061806180E180C180C181C18189A
:101D1C007E780000000000000000000000000000C1
:101D2C000000000000000000E027303818300C20C4
:101D3C000C200C000C0018007800E003800F001E33
:101D4C0000380070006004600460086018303818B7
:101D5C00C80F0000000000000000000000000000A0
:101D6C000000000000000000FC3F8C2184618241D7
:101D7C00824180018001800180018001800180010D
:101D8C00800180018001800180018001800180013F
:101D9C00E007000000000000000000000000000050
:101DAC0000000000000000003F7C0C100C100C1018
:101DBC000C100C100C100C100C100C100C100C1037
:101DCC000C100C100C100C100C100C100808380413
:101DDC00E003000000000000000000000000000014
:101DEC0000000000000000003EF818201820182009
:101DFC003010301030103010600860086008E00CB3
:101E0C00C004C004C004800380038003800300016D
:101E1C0000010000000000000000000000000000B5
:101E2C000000000000000000DFF38661862186219F
:101E3C008C210C218C238C138C138C134C13581267
:101E4C005816580E380E380E380E300C100410047C
:101E5C001004000000000000000000000000000062
:101E6C0000000000000000007E3E18083808300416
:101E7C00300470026002E001C001C00180018003E7
:101E8C004003400720062006100C100C08180818F8
:101E9C003E7C00000000000000000000000000007C
:101EAC0000000000000000007E7C1C1018101808B8
:101EBC003008300C700460046002C002C002C00123
:101ECC0080018001800180018001800180018001FE
:101EDC00E00700000000000000000000000000000F
:101EEC000000000000000000F83F18180818040C4F
:101EFC00040E00060007000380038001C001C0002F
:101F0C00E000600070003000382018201C100C1805
:101F1C00FE1F000000000000000000000000000098
:101F2C000000C03F40004000400040004000400026
:101F3C004000400040004000400040004000400095
:101F4C004000400040004000400040004000400085
:101F5C00400040004000C03F0000000000000000B6
:101F6C0000000000000008001800180010003000ED
:101F7C002000600060004000C000800080018001F3
:101F8C00000100030002000600060004000C00081B
:101F9C0000180018001000300020000000000000A5
:101FAC000000FC030002000200020002000200021A
:101FBC000002000200020002000200020002000205
:101FCC0000020002000200020002000200020002F5
:101FDC00000200020002FC030000000000000000F0
:101FEC0000008007C0062008101000000000000050
:101FFC0000000000000000000000000000000000D5
:10200C0000000000000000000000000000000000C4
:10201C0000000000000000000000000000000000B4
:10202C0000000000000000000000000000000000A4
:10203C000000000000000000000000000000000094
:10204C000000000000000000000000000000000084
:10205C0000000000000000000000FFFF0000000076
:10206C0000007800C000000100000000000000002B
:10207C000000000000000000000000000000000054
:10208C000000000000000000000000000000000044
:10209C000000000000000000000000000000000034
:1020AC000000000000000000000000000000000024
:1020BC00000000000000F00318060C0C0C0C000CC7
:1020CC00800F700C1C0C0C0C060C060C064C0C4FE8
:1020DC00F8380000000000000000000000000000C4
:1020EC0000000000000010001E001800180018006E
:1020FC00180018001800180FD818383038601860FD
:10210C00186018601860186018601820383078183B
:10211C00C8070000000000000000000000000000E4
:10212C0000000000000000000000000000000000A3
:10213C00000000000000C007700C181818180C18CC
:10214C000C000C000C000C000C201820181030088F
:10215C00C0070000000000000000000000000000AC
:10216C000000000000000010001E001800180018ED
:10217C00001800180018E01B301C181818180C1840
:10218C000C180C180C180C180C180818181C307A91
:10219C00E00900000000000000000000000000004A
:1021AC000000000000000000000000000000000023
:1021BC00000000000000C007300C181808100C308C
:1021CC000C30FC3F0C000C000C0018201810701880
:1021DC00C00700000000000000000000000000002C
:1021EC000000000000000000003E80C380C0C0C0A2
:1021FC00C000C000C000FC1FC000C000C000C00078
:10220C00C000C000C000C000C000C000C000C000C2
:10221C00F80F0000000000000000000000000000AB
:10222C0000000000000000000000000000000000A2
:10223C00000000000000C077306C10181818181837
:10224C0018181018300CF00718001800F00FF03F99
:10225C0008700C600C600C603838E00F0000000057
:10226C0000000000000010001E00180018001800EC
:10227C00180018001800980FD8183830183018307B
:10228C001830183018301830183018301830183002
:10229C007EFC0000000000000000000000000000B8
:1022AC000000000000000000800380038003000099
:1022BC00000000000001F801800180018001800114
:1022CC0080018001800180018001800180018001FA
:1022DC00F81F0000000000000000000000000000DB
:1022EC00000000000000000000380038003800003A
:1022FC00000000000010801F0018001800180018C3
:10230C000018001800180018001800180018001801
:10231C00001800180018180C1806F0030000000034
:10232C0000000000000010001E001800180018002B
:10233C00180018001800183E180C1806180318017D
:10234C009801D801380318071806180C181C18180F
:10235C007E7C000000000000000000000000000077
:10236C000000000000000001F801800180018001E4
:10237C008001800180018001800180018001800149
:10238C008001800180018001800180018001800139
:10239C00F81F00000000000000000000000000001A
:1023AC000000000000000000000000000000000021
:1023BC00000000000800EE1C9C338C318C318C31F9
:1023CC008C318C318C318C318C318C318C318C3119
:1023DC00DE7B000000000000000000000000000098
:1023EC0000000000000000000000000000000000E1
:1023FC000000000010001E0FD818383018301830AC
:10240C001830183018301830183018301830183080
:10241C007EFC000000000000000000000000000036
:10242C0000000000000000000000000000000000A0
:10243C00000000000000C007701C103018300C6049
:10244C000C600C600C600C600C601830183030188C
:10245C00C0070000000000000000000000000000A9
:10246C000000000000000000000000000000000060
:10247C000000000010009E0F58183830182018600B
:10248C0018601860186018601860183038307818A8
:10249C00980718001800180018007E0000000000B3
:1024AC000000000000000000000000000000000020
:1024BC00000000000000C023303C183818300C30ED
:1024CC000C300C300C300C300C3008301838303CE0
:1024DC00E033003000300030003000FC0000000021
:1024EC0000000000000000000000000000000000E0
:1024FC000000000060007E3C60666061E000E0006F
:10250C0060006000600060006000600060006000BF
:10251C00FE070000000000000000000000000000AA
:10252C00000000000000000000000000000000009F
:10253C00000000000000E027303818301820180088
:10254C007000E003800F001C043004300C301C18A9
:10255C00EC0F000000000000000000000000000074
:10256C00000000000000000000000000800080005F
:10257C008000C000E000FC1FC000C000C000C00014
:10258C00C000C000C000C000C000C020C02080112E
:10259C00000F000000000000000000000000000020
:1025AC00000000000000000000000000000000001F
:1025BC000000000010201E3C183018301830183065
:1025CC00183018301830183018301830183830F4DB
:1025DC00E0130000000000000000000000000000FC
:1025EC0000000000000000000000000000000000DF
:1025FC000000000000007E3C181818083808300451
:10260C003004700260026002E001C001C001C00031
:10261C00800000000000000000000000000000002E
:10262C00000000000000000000000000000000009E
:10263C00000000000000DFF78E630C238C238C233A
:10264C009813981358165816700E700E700E2004AE
:10265C00200400000000000000000000000000004A
:10266C00000000000000000000000000000000005E
:10267C00000000000000FC3E70087004E004C00282
:10268C00C0018003800340076006200C100C181852
:10269C003E7E000000000000000000000000000072
:1026AC00000000000000000000000000000000001E
:1026BC000000000000007E7C181818083008300854
:1026CC00300460046004C002C002C00280018001BA
:1026DC0080018000800080004C003C000000000065
:1026EC0000000000000000000000000000000000DE
:1026FC00000000000000FC1F0C0C040E040600037C
:10270C0080038001C000E0007020302038301C189D
:10271C00FC1F000000000000000000000000000092
:10272C000000003000080004000400040004000451
:10273C0000040004000400040004000280010002F4
:10274C00000400040004000400040004000400045D
:10275C000004000400040008003000000001000127
:10276C000001000100010001000100010001000155
:10277C000001000100010001000100010001000145
:10278C000001000100010001000100010001000135
:10279C000001000100010001000100010000000027
:1027AC0000000C0010002000200020002000200061
:1027BC00200020002000200020004000800140006C
:1027CC0020002000200020002000200020002000FD
:1027DC0020002000200010000C0000000000380039
:1027EC00C400864002610022001C000000000000B2
:1027FC0000000000000000000000000000000000CD
:10280C0000000000000000000000000000000000BC
:10281C0000000000000000000000000000000000AC
:10282C00000000000000000000000000000000009C
:10283C00000000000000000000000000000000008C
:10284C00000000000000000000000000000000007C
:10285C00000000006000600060006000600060002C
:10286C00600040002000200020000000000000005C
:10287C00600060006000000000000000000000002C
:10288C0060066006300398018800440000000000D8
:10289C00000000000000000000000000000000002C
:1028AC00000000000000000000000000000000001C
:1028BC00000000001002100210021002FE07FE07BA
:1028CC0008020801080108010801FE07FE070401BF
:1028DC0004010401040100000000000000000000DD
:1028EC00000040004000F00158034C03CC034C00A6
:1028FC0058007000E000C001C00140034C035C03B1
:10290C004C034801F00040004000000000000000B3
:10291C00000000000E010A0191009100910051008D
:10292C0051003A00AE03A00250045004480448047D
:10293C004804840284030000000000000000000032
:10294C000000000038006C006C006C006C006C0027
:10295C002C0098071C011A01330133016301E300B9
:10296C00C308C6093C07000000000000000000007E
:10297C000C001C00100010000800040000000000F7
:10298C00000000000000000000000000000000003B
:10299C00000000000000000000000000000000002B
:1029AC000004000200018000800040004000200074
:1029BC0020002000200020002000200040004000CB
:1029CC0080008000000100020004000000000000F4
:1029DC00020004000800100010002000200040003D
:1029EC00400040004000400040004000200020001B
:1029FC00100010000800040002000000000000009D
:102A0C0000000000000000004000C0004000460C28
:102A1C004E0FD001F0015E0F460C4000400040000C
:102A2C00000000000000000000000000000000009A
:102A3C0000000000000000000000400040004000CA
:102A4C0040004000FE0F40004000400040004000AD
:102A5C00000000000000000000000000000000006A
:102A6C00000000000000000000000000000000005A
:102A7C00000000000000000000000000000000004A
:102A8C000C001C00100010000800040000000000E6
:102A9C00000000000000000000000000000000002A
:102AAC0000000000FE070000000000000000000015
:102ABC00000000000000000000000000000000000A
:102ACC0000000000000000000000000000000000FA
:102ADC0000000000000000000000000000000000EA
:102AEC001C001C001C000000000000000000000086
:102AFC0000040006000200030001000180008000B9
:102B0C004000400060002000200010001000080071
:102B1C0008000C0004000600020000000000000089
:102B2C00000000000000F00098010C030C030606E6
:102B3C0006060606060606060606060606060C0326
:102B4C000C039801F00000000000000000000000E1
:102B5C0000000000000040007C006000600060008D
:102B6C006000600060006000600060006000600059
:102B7C0060006000FC03000000000000000000008A
:102B8C00000000000000F8008401020306030603A5
:102B9C00000300018001C00060002000100008024A
:102BAC0004020602FE03000000000000000000000A
:102BBC000000000000007800C6008601860180013C
:102BCC008001C000700080010001000300030603B7
:102BDC0006038601F8000000000000000000000061
:102BEC0000000000000080018001C001A001A001D4
:102BFC0090018801880184018201FE0F800180010F
:102C0C0080018001E00700000000000000000000CF
:102C1C00000000000000FC03040004000400040099
:102C2C000400F4008C0104030003000306030603F4
:102C3C0082018401F8000000000000000000000088
:102C4C00000000000000E00118030C030C0004005D
:102C5C000600E60116030E06060606060606040620
:102C6C000C021803F000000000000000000000003F
:102C7C00000000000000F8070C060402040100012B
:102C8C0000018000800040004000400060006000B7
:102C9C006000600060000000000000000000000008
:102CAC00000000000000F8010C03060606060606EC
:102CBC000C021C03F000C8010C03060606060606EF
:102CCC0006060C03F00100000000000000000000EC
:102CDC00000000000000F0000C010C0306020606C8
:102CEC000606060606078C06780600060003000397
:102CFC000C018C01780000000000000000000000B6
:102D0C0000000000000000000000000000000000B7
:102D1C00E000E000E0000000000000000000000007
:102D2C00E000E000E00000000000000000000000F7
:102D3C000000000000000000000000000000000087
:102D4C0060006000000000000000000000000000B7
:102D5C000000600060004000200020000000000027
:102D6C000000000000040002000180004000200070
:102D7C001000080004000800100020004000800033
:102D8C000001000200040000000000000000000030
:102D9C000000000000000000000000000000000027
:102DAC00FE07000000000000FE070000000000000D
:102DBC000000000000000000000000000000000007
:102DCC0000000000040008001000200040008000FB
:102DDC0000010002000400020001800040002000FD
:102DEC0010000800040000000000000000000000BB
:102DFC00000000000000E0031806040C040C0C0C8E
:102E0C000C0C000780014000400040000000000056
:102E1C00E000E000E0000000000000000000000006
:102E2C0000000000E00018030C02CC0564056605E8
:102E3C00A605B604B604B604B604B602E4010C0446
:102E4C000C021803F000000000000000000000005D
:102E5C00000000000000600060005000D0009000F6
:102E6C009000880088010801F8010403040304029F
:102E7C00020202060F0F000000000000000000001C
:102E8C00000000000000FE008C030C030C030C037C
:102E9C000C038C01FC000C030C020C060C060C063B
:102EAC000C060C03FE0100000000000000000000F6
:102EBC00000000000000E00318030C060C040404DE
:102ECC0006000600060006000600060006040C04B8
:102EDC000C021803F00000000000000000000000CD
:102EEC000000000000007F008C010C030C030C069A
:102EFC000C060C060C060C060C060C060C060C0339
:102F0C000C038C017F00000000000000000000009A
:102F1C00000000000000FF03060306040604060080
:102F2C0086008600FE0086008600860006000604E9
:102F3C0006040602FF030000000000000000000071
:102F4C00000000000000FF03060306040604060050
:102F5C0086008600FE0086008600860006000600BD
:102F6C00060006001F00000000000000000000002A
:102F7C00000000000000F00018010C020C0204021A
:102F8C000600060006000600C60F060306030C0327
:102F9C000C031803F000000000000000000000000B
:102FAC000000000000000F0F0606060606060606C7
:102FBC0006060606FE0706060606060606060606AC
:102FCC00060606060F0F00000000000000000000BF
:102FDC00000000000000FC03600060006000600066
:102FEC0060006000600060006000600060006000D5
:102FFC0060006000FC030000000000000000000006
:10300C00000000000000F807C000C000C000C000B5
:10301C00C000C000C000C000C000C000C000C000A4
:10302C00C000C000C000C60066003C0000000000EC
:10303C00000000000000CF038601C60046002600F9
:10304C00160036002E006E004600C6008600860173
:10305C00060106038F0700000000000000000000BE
:10306C000000000000001F0006000600060006001D
:10307C000600060006000600060006000600060410
:10308C0006040602FF030000000000000000000020
:10309C000000000000000707860386038E038E03E2
:1030AC004E034E034A035A035A033A0332033203C4
:1030BC00320312038707000000000000000000002C
:1030CC000000000000008E0F0C021C021C023402D7
:1030DC003402640264024402C40284028403840342
:1030EC00040304031F0200000000000000000000A5
:1030FC00000000000000F00098010C030C02060612
:10310C0006060606060606060606060606060C0251
:10311C000C039801F000000000000000000000000B
:10312C00000000000000FF00060306060606060667
:10313C00060606068603FE000600060006000600CC
:10314C00060006001F000000000000000000000048
:10315C00000000000000F00098010C030C020606B1
:10316C0006060606060606060606060676064C0241
:10317C00CC039801F0008007000300000000000061
:10318C00000000000000FF01060306060606060606
:10319C0006060603FE004600C600860086010603EE
:1031AC00060306060F0E00000000000000000000E1
:1031BC00000000000000F8020C03060206020600E4
:1031CC000E003C00F800E003800300070206020634
:1031DC0006060C03F00100000000000000000000D7
:1031EC00000000000000FE07620461086108600036
:1031FC0060006000600060006000600060006000C3
:10320C0060006000F80100000000000000000000F9
:10321C000000000000001E070C020C020C020C0245
:10322C000C020C020C020C020C020C020C020C0222
:10323C000C021801F000000000000000000000006B
:10324C000000000000000F070602040104010C013D
:10325C000C01880088009800980050005000700005
:10326C0030002000200000000000000000000000E2
:10327C00000000000000F70E6204420446044604FD
:10328C0064026402E402E4029C029C01980198012D
:10329C008801880088000000000000000000000089
:1032AC000000000000009E070C01080118019000AE
:1032BC00B0006000200060006000D0009000880129
:1032CC00080104038E07000000000000000000004D
:1032DC000000000000000F0F060404020C0208019D
:1032EC001801B800B0007000600060006000600061
:1032FC0060006000F8010000000000000000000009
:10330C00000000000000FC070C0206030201800113
:10331C00800040004000200020001000180008042D
:10332C000C040402FE03000000000000000000007A
:10333C00E0032000200020002000200020002000BE
:10334C002000200020002000200020002000200071
:10335C002000200020002000E003000000000000FE
:10336C000000000004000400080008001000100019
:10337C0010002000200040004000C00080008000B1
:10338C000001000100020002000200040000000025
:10339C007C004000400040004000400040004000E5
:1033AC004000400040004000400040004000400011
:1033BC0040004000400040007C0000000000600025
:1033CC009000080100000000000000000000000058
:1033DC0000000000000000000000000000000000E1
:1033EC0000000000000000000000000000000000D1
:1033FC0000000000000000000000000000000000C1
:10340C0000000000000000000000000000000000B0
:10341C0000000000000000000000FF0F0000000092
:10342C001800600000000000000000000000000018
:10343C000000000000000000000000000000000080
:10344C000000000000000000000000000000000070
:10345C000000000000000000000000000000000060
:10346C00F0010C030C030003E0031C030E03060322
:10347C0006038E0B7C0E0000000000000000000014
:10348C000000000008000E000C000C000C000C00EA
:10349C00CC013C031C060C060C060C060C060C0698
:1034AC000C021C03E40100000000000000000000FE
:1034BC000000000000000000000000000000000000
:1034CC00F0008C018C018601060006000600060245
:1034DC000C020C01F00000000000000000000000D5
:1034EC00000000000002C0030003000300030003FF
:1034FC0078038C030C03060306030603060306037A
:10350C0004038C077801000000000000000000009C
:10351C00000000000000000000000000000000009F
:10352C00E001180308020C060C06FC070C000C004A
:10353C0018041802E0010000000000000000000068
:10354C00000000000000C0036006300630003000B0
:10355C00FE01300030003000300030003000300010
:10356C0030003000FC0100000000000000000000F2
:10357C00000000000000000000000000000000003F
:10358C00F007D8068C018C018C019801F8000C0016
:10359C00FC00CC03060306038E03F80000000000B9
:1035AC000000000008000E000C000C000C000C00C9
:1035BC00EC011C030C030C030C030C030C030C0399
:1035CC000C030C039E07000000000000000000002C
:1035DC0000000000000060006000000000004000DF
:1035EC007C006000600060006000600060006000B3
:1035FC0060006000FC030000000000000000000000
:10360C00000000000000C001C0010000000000012B
:10361C00F001800180018001800180018001800126
:10362C008001800180018001CC007C000000000042
:10363C000000000008000E000C000C000C000C0038
:10364C008C038C008C004C006C005C008C008C019A
:10365C000C010C039E07000000000000000000009D
:10366C000000000040007C00600060006000600012
:10367C00600060006000600060006000600060003E
:10368C0060006000FC03000000000000000000006F
:10369C00000000000000000000000000000000001E
:1036AC003707EE0666066606660666066606660654
:1036BC0066066606FF0F0000000000000000000018
:1036CC0000000000000000000000000000000000EE
:1036DC00EE011C030C030C030C030C030C030C0376
:1036EC000C030C039E07000000000000000000000B
:1036FC0000000000000000000000000000000000BE
:10370C00F00098010C0306060606060606060606D9
:10371C000C030C03F000000000000000000000008F
:10372C00000000000000000000000000000000008D
:10373C00EE011C030C060C060C060C060C060C0603
:10374C000C031C03EC010C000C003E0000000000FC
:10375C00000000000000000000000000000000005D
:10376C0078028C030C030603060306030603060308
:10377C0004038C03780300030003C007000000005F
:10378C00000000000000000000000000000000002D
:10379C009F03580638061800180018001800180067
:1037AC0018001800FF0000000000000000000000DE
:1037BC0000000000000000000000000000000000FD
:1037CC00F0031C030C020C023800F000C0030403CD
:1037DC0004038C03FC01000000000000000000004A
:1037EC00000000000000000020002000300030002D
:1037FC00FE0130003000300030003000300030006E
:10380C0030023002E0010000000000000000000067
:10381C000000000000000000000000000000080292
:10382C008E030C030C030C030C030C030C030C0392
:10383C000C039C0778010000000000000000000051
:10384C00000000000000000000000000000000006C
:10385C001E070C020801080118019000B000B0000E
:10386C00600060002000000000000000000000006C
:10387C00000000000000000000000000000000003C
:10388C00F70E6204460464026402EC029C01980187
:10389C0098019801080000000000000000000000E2
:1038AC00000000000000000000000000000000000C
:1038BC00BC0718011001B00060006000E00090002F
:1038CC00080108039E070000000000000000000033
:1038DC0000000000000000000000000000000000DC
:1038EC009E0708010801080190009000B0006000DC
:1038FC00600060002000200024001C00000000007C
:10390C0000000000000000000000000000000000AB
:10391C00FC018401C4004400600020003000180247
:10392C0008020C03FC010000000000000000000075
:10393C0000038000800080008000800080008000F8
:10394C00800040002000400080008000800080004B
:10395C0080008000800080000003000040004000D8
:10396C00400040004000400040004000400040004B
:10397C00400040004000400040004000400040003B
:10398C0040004000400040004000400000000000AB
:10399C000C0010001000100010001000100010009F
:1039AC00100020004000200010001000100010003B
:1039BC0010001000100010000C00000000001C0093
:1039CC002204C2048003000000000000000000007C
:1039DC0000000000000000000000000000000000DB
:1039EC0000000000000000000000000000000000CB
:1039FC0000000000000000000000000000000008B3
:103A0C0008080808080800001818000000486C2472
:103A1C001200000000000000000000000000002464
:103A2C0024247F1212127F12121200000000081CB4
:103A3C002A2A0A0C1828282A2A1C08080000002206
:103A4C00251515152A585454542200000000000C5A
:103A5C001212120A76252911916E00000006060436
:103A6C0003000000000000000000000000402010D7
:103A7C00100808080808081010204000000204086C
:103A8C0008101010101010080804020000000000AC
:103A9C0008086B1C1C6B08080000000000000000EC
:103AAC00080808087F08080808000000000000004B
:103ABC0000000000000000000606040300000000E7
:103ACC0000000000FE0000000000000000000000EC
:103ADC00000000000000000006060000000080400E
:103AEC0040202010100808040402020000000018F6
:103AFC002442424242424242241800000000000884
:103B0C000E08080808080808083E00000000003CE1
:103B1C004242422020100804427E00000000003C7B
:103B2C004242201820404042221C0000000000208D
:103B3C003028242422227E20207800000000007EE1
:103B4C000202021A26404042221C000000000038EB
:103B5C002402021A26424242241800000000007E71
:103B6C002222101008080808080800000000003C79
:103B7C004242422418244242423C000000000018F9
:103B8C002442424264584040241C000000000000C3
:103B9C0000001818000000001818000000000000B9
:103BAC0000000008000000000008080400000040AD
:103BBC00201008040204081020400000000000003F
:103BCC0000007F0000007F000000000000000002E9
:103BDC000408102040201008040200000000003CE3
:103BEC004242464020101000181800000000001C33
:103BFC00225A555555552D42221C00000000000834
:103C0C0008181414243C224242E700000000001F54
:103C1C002222221E22424242221F00000000007C6F
:103C2C004242010101010142221C00000000001F60
:103C3C002242424242424242221F00000000003F08
:103C4C004212121E12120242423F00000000003FBC
:103C5C004212121E12120202020700000000003C67
:103C6C002222010101712122221C0000000000E728
:103C7C00424242427E42424242E700000000003E85
:103C8C000808080808080808083E00000000007C26
:103C9C0010101010101010101010110F00000077E1
:103CAC0022120A0E0A1212222277000000000007CC
:103CBC000202020202020202427F000000000077B0
:103CCC00363636362A2A2A2A2A6B0000000000E3F0
:103CDC0046464A4A52525262624700000000001C9B
:103CEC002241414141414141221C00000000003F62
:103CFC00424242423E020202020700000000001C47
:103D0C002241414141414D53321C60000000003FB3
:103D1C004242423E1212222242C700000000007CA6
:103D2C004242020418204042423E00000000007F44
:103D3C004908080808080808081C0000000000E7EB
:103D4C004242424242424242423C0000000000E7F2
:103D5C004242222424141418080800000000006BAE
:103D6C00494949495555362222220000000000E7F6
:103D7C00422424181818242442E70000000000777D
:103D8C002222141408080808081C00000000007EF9
:103D9C002120101008040442423F0000007808085B
:103DAC00080808080808080808087800000002023B
:103DBC00040408080810102020204040001E101099
:103DCC00101010101010101010101E0000384400AD
:103DDC0000000000000000000000000000000000D7
:103DEC000000000000000000000000FF00060800BA
:103DFC0000000000000000000000000000000000B7
:103E0C000000003C4278444242FC000000000003E9
:103E1C000202021A26424242261A0000000000004A
:103E2C000000003844020202443800000000006028
:103E3C00404040784442424264D8000000000000F8
:103E4C000000003C427E0202423C0000000000F0F8
:103E5C008808087E08080808083E000000000000DA
:103E6C000000007C22221C023C42423C0000000369
:103E7C000202023A4642424242E700000000000CB5
:103E8C000C00000E08080808083E00000000003076
:103E9C0030000038202020202020221E00000003AB
:103EAC0002020272120A1612227700000000000EA3
:103EBC000808080808080808083E00000000000070
:103ECC000000007F9292929292B7000000000000D6
:103EDC000000003B4642424242E700000000000066
:103EEC000000003C42424242423C00000000000004
:103EFC000000001B26424242221E02070000000066
:103F0C000000007844424242447840E00000000047
:103F1C00000000774C040404041F000000000000A3
:103F2C000000007C42023C40423E000000000000C9
:103F3C000008083E080808080830000000000000CF
:103F4C00000000634242424262DC000000000000BC
:103F5C00000000E7422424140808000000000000C0
:103F6C00000000EB494955552222000000000000DA
:103F7C000000007624181818246E000000000000C1
:103F8C00000000E742242414180808070000000071
:103F9C000000007E22100808447E000000C0202093
:103FAC0020202010202020202020C00010101010D5
:103FBC00101010101010101010101010000608081F
:103FCC000808081008080808080806000C32C20087
:103FDC0000000000000000000000000000000000D5
:103FEC0000000000000000000000040404040400B1
:103FFC000004000014140A0000000000000000007F
:10400C0000000A0A1F0A0A1F0A0A000000040E1503
:10401C0005060C14150E0400000012150D152E2C9F
:10402C002A1200000000040A0A3615152916000091
:10403C00020201000000000000000000100808044B
:10404C000404040408081000020404080808080802
:10405C000404020000000004150E0E1504000000FC
:10406C0000000008083E08080000000000000000E6
:10407C00000000000202010000000000003F0000F0
:10408C000000000000000000000000000002000022
:10409C0000201010080804040202010000000E1198
:1040AC0011111111110E0000000004060404040487
:1040BC00040E000000000E1111080402011F000084
:1040CC0000000E11100C1010110E00000000080C56
:1040DC000C0A091F081C000000001F01010F111021
:1040EC00110E000000000C12010D1311110E000036
:1040FC0000001E10080804040404000000000E1147
:10410C00110E1111110E000000000E1111191610D4
:10411C00090600000000000004000000000400007C
:10412C00000000000004000000040400000010085F
:10413C000402020408100000000000003F003F00D1
:10414C000000000000000204081010080402000027
:10415C0000000E11110804040004000000001C22D1
:10416C00292D2D1D221C0000000004040C0A0A1E1F
:10417C001233000000000F12120E1212120F000068
:10418C0000001E1101010101110E000000000F12B0
:10419C0012121212120F000000001F120A0E0A0255
:1041AC00121F000000001F120A0E0A020207000074
:1041BC0000001C1201013911120C00000000331216
:1041CC00121E12121233000000001F040404040417
:1041DC00041F000000003E0808080808080809072A
:1041EC00000037120A060A121237000000000702FC
:1041FC0002020202223F000000003B1B1B1B151594
:10420C001535000000003B1216161A1A1217000082
:10421C0000000E1111111111110E000000000F12EF
:10422C00120E02020207000000000E1111111117EC
:10423C00190E180000000F12120E0A12123700008D
:10424C0000001E1101060810110F000000001F15C0
:10425C0004040404040E00000000331212121212A3
:10426C00120C000000003312120A0A0C04040000A5
:10427C000000151515150E0A0A0A000000001B0A8D
:10428C000A04040A0A1B000000001B0A0A0A0404A0
:10429C00040E000000001F0908040402121F000095
:1042AC001C0404040404040404041C00000202049E
:1042BC0004040808081010000E080808080808086C
:1042CC0008080E00040A00000000000000000000B6
:1042DC0000000000000000000000003F020400008D
:1042EC00000000000000000000000000000C121C88
:1042FC00123C000000030202020E1212120E000009
:10430C0000000000001C1202120C0000001810101B
:10431C00101C1212123C000000000000000C121EB7
:10432C00021C000000182404041E0404041E0000D7
:10433C0000000000003C120C021C221C00030202B4
:10434C00020E1212123700000004040000060404CE
:10435C00040E000000080800000C080808080807F4
:10436C0000030202021A0A060A13000000070404E2
:10437C0004040404041F000000000000000F1515C5
:10438C001515000000000000000F1212123700007B
:10439C0000000000000C1212120C000000000000C3
:1043AC00000F1212120E020700000000001C121265
:1043BC00121C103800000000001B0602020700004F
:1043CC0000000000001E020C101E00000000000483
:1043DC00041E0404041C000000000000001B121248
:1043EC00123C000000000000001B0A0A040400003C
:1043FC00000000000015150E0A0A00000000000065
:10440C00001B0A040A1B00000000000000331212FB
:10441C000C08040300000000001E0804041E000029
:10442C0018080808080C08080808180008080808E4
:10443C00080808080808080806040404040804040A
:10444C000404060016090000000000000000000033
:10445C000204060800000000010203040102030428
:04446C00060708092E
:08447000E80E0008B401000889
:0444780070010008C7
:04447C0024000020F8
:040000050800010CE2
:00000001FF
